{
  "_format": "hh-sol-artifact-1",
  "contractName": "Cronoverse",
  "sourceName": "contracts/drops/Cronoverse.sol",
  "abi": [
    {
      "inputs": [
        {
          "internalType": "address",
          "name": "_memberships",
          "type": "address"
        },
        {
          "internalType": "address",
          "name": "_artist",
          "type": "address"
        }
      ],
      "stateMutability": "nonpayable",
      "type": "constructor"
    },
    {
      "anonymous": false,
      "inputs": [
        {
          "indexed": true,
          "internalType": "address",
          "name": "owner",
          "type": "address"
        },
        {
          "indexed": true,
          "internalType": "address",
          "name": "approved",
          "type": "address"
        },
        {
          "indexed": true,
          "internalType": "uint256",
          "name": "tokenId",
          "type": "uint256"
        }
      ],
      "name": "Approval",
      "type": "event"
    },
    {
      "anonymous": false,
      "inputs": [
        {
          "indexed": true,
          "internalType": "address",
          "name": "owner",
          "type": "address"
        },
        {
          "indexed": true,
          "internalType": "address",
          "name": "operator",
          "type": "address"
        },
        {
          "indexed": false,
          "internalType": "bool",
          "name": "approved",
          "type": "bool"
        }
      ],
      "name": "ApprovalForAll",
      "type": "event"
    },
    {
      "anonymous": false,
      "inputs": [
        {
          "indexed": true,
          "internalType": "address",
          "name": "previousOwner",
          "type": "address"
        },
        {
          "indexed": true,
          "internalType": "address",
          "name": "newOwner",
          "type": "address"
        }
      ],
      "name": "OwnershipTransferred",
      "type": "event"
    },
    {
      "anonymous": false,
      "inputs": [
        {
          "indexed": false,
          "internalType": "address",
          "name": "account",
          "type": "address"
        }
      ],
      "name": "Paused",
      "type": "event"
    },
    {
      "anonymous": false,
      "inputs": [
        {
          "indexed": true,
          "internalType": "address",
          "name": "from",
          "type": "address"
        },
        {
          "indexed": true,
          "internalType": "address",
          "name": "to",
          "type": "address"
        },
        {
          "indexed": true,
          "internalType": "uint256",
          "name": "tokenId",
          "type": "uint256"
        }
      ],
      "name": "Transfer",
      "type": "event"
    },
    {
      "anonymous": false,
      "inputs": [
        {
          "indexed": false,
          "internalType": "address",
          "name": "account",
          "type": "address"
        }
      ],
      "name": "Unpaused",
      "type": "event"
    },
    {
      "inputs": [
        {
          "internalType": "address",
          "name": "to",
          "type": "address"
        },
        {
          "internalType": "uint256",
          "name": "tokenId",
          "type": "uint256"
        }
      ],
      "name": "approve",
      "outputs": [],
      "stateMutability": "nonpayable",
      "type": "function"
    },
    {
      "inputs": [],
      "name": "artist",
      "outputs": [
        {
          "internalType": "address",
          "name": "",
          "type": "address"
        }
      ],
      "stateMutability": "view",
      "type": "function"
    },
    {
      "inputs": [
        {
          "internalType": "address",
          "name": "owner",
          "type": "address"
        }
      ],
      "name": "balanceOf",
      "outputs": [
        {
          "internalType": "uint256",
          "name": "",
          "type": "uint256"
        }
      ],
      "stateMutability": "view",
      "type": "function"
    },
    {
      "inputs": [
        {
          "internalType": "address",
          "name": "",
          "type": "address"
        }
      ],
      "name": "canMint",
      "outputs": [
        {
          "internalType": "uint256",
          "name": "",
          "type": "uint256"
        }
      ],
      "stateMutability": "pure",
      "type": "function"
    },
    {
      "inputs": [
        {
          "internalType": "uint256",
          "name": "tokenId",
          "type": "uint256"
        }
      ],
      "name": "getApproved",
      "outputs": [
        {
          "internalType": "address",
          "name": "",
          "type": "address"
        }
      ],
      "stateMutability": "view",
      "type": "function"
    },
    {
      "inputs": [],
      "name": "getInfo",
      "outputs": [
        {
          "components": [
            {
              "internalType": "uint256[3]",
              "name": "regularCost",
              "type": "uint256[3]"
            },
            {
              "internalType": "uint256[3]",
              "name": "memberCost",
              "type": "uint256[3]"
            },
            {
              "internalType": "uint256",
              "name": "whitelistCost",
              "type": "uint256"
            },
            {
              "internalType": "uint256",
              "name": "maxSupply",
              "type": "uint256"
            },
            {
              "internalType": "uint256",
              "name": "totalSupply",
              "type": "uint256"
            },
            {
              "internalType": "uint256",
              "name": "maxMintPerAddress",
              "type": "uint256"
            },
            {
              "internalType": "uint256",
              "name": "maxMintPerTx",
              "type": "uint256"
            }
          ],
          "internalType": "struct IDrop.Info",
          "name": "",
          "type": "tuple"
        }
      ],
      "stateMutability": "view",
      "type": "function"
    },
    {
      "inputs": [],
      "name": "getMintedIds",
      "outputs": [
        {
          "internalType": "uint256[]",
          "name": "",
          "type": "uint256[]"
        }
      ],
      "stateMutability": "view",
      "type": "function"
    },
    {
      "inputs": [
        {
          "internalType": "uint256",
          "name": "tokenId",
          "type": "uint256"
        }
      ],
      "name": "getTileType",
      "outputs": [
        {
          "internalType": "uint8",
          "name": "",
          "type": "uint8"
        }
      ],
      "stateMutability": "pure",
      "type": "function"
    },
    {
      "inputs": [
        {
          "internalType": "address",
          "name": "owner",
          "type": "address"
        },
        {
          "internalType": "address",
          "name": "operator",
          "type": "address"
        }
      ],
      "name": "isApprovedForAll",
      "outputs": [
        {
          "internalType": "bool",
          "name": "",
          "type": "bool"
        }
      ],
      "stateMutability": "view",
      "type": "function"
    },
    {
      "inputs": [
        {
          "internalType": "address",
          "name": "_address",
          "type": "address"
        }
      ],
      "name": "isMember",
      "outputs": [
        {
          "internalType": "bool",
          "name": "",
          "type": "bool"
        }
      ],
      "stateMutability": "view",
      "type": "function"
    },
    {
      "inputs": [],
      "name": "maxSupply",
      "outputs": [
        {
          "internalType": "uint256",
          "name": "",
          "type": "uint256"
        }
      ],
      "stateMutability": "pure",
      "type": "function"
    },
    {
      "inputs": [],
      "name": "memberships",
      "outputs": [
        {
          "internalType": "contract ERC1155",
          "name": "",
          "type": "address"
        }
      ],
      "stateMutability": "view",
      "type": "function"
    },
    {
      "inputs": [
        {
          "internalType": "uint256",
          "name": "id",
          "type": "uint256"
        }
      ],
      "name": "mint",
      "outputs": [],
      "stateMutability": "payable",
      "type": "function"
    },
    {
      "inputs": [
        {
          "internalType": "address",
          "name": "_minter",
          "type": "address"
        }
      ],
      "name": "mintCost",
      "outputs": [
        {
          "internalType": "uint256[3]",
          "name": "",
          "type": "uint256[3]"
        }
      ],
      "stateMutability": "view",
      "type": "function"
    },
    {
      "inputs": [],
      "name": "name",
      "outputs": [
        {
          "internalType": "string",
          "name": "",
          "type": "string"
        }
      ],
      "stateMutability": "view",
      "type": "function"
    },
    {
      "inputs": [],
      "name": "owner",
      "outputs": [
        {
          "internalType": "address",
          "name": "",
          "type": "address"
        }
      ],
      "stateMutability": "view",
      "type": "function"
    },
    {
      "inputs": [
        {
          "internalType": "uint256",
          "name": "tokenId",
          "type": "uint256"
        }
      ],
      "name": "ownerOf",
      "outputs": [
        {
          "internalType": "address",
          "name": "",
          "type": "address"
        }
      ],
      "stateMutability": "view",
      "type": "function"
    },
    {
      "inputs": [],
      "name": "pause",
      "outputs": [],
      "stateMutability": "nonpayable",
      "type": "function"
    },
    {
      "inputs": [],
      "name": "paused",
      "outputs": [
        {
          "internalType": "bool",
          "name": "",
          "type": "bool"
        }
      ],
      "stateMutability": "view",
      "type": "function"
    },
    {
      "inputs": [
        {
          "internalType": "address",
          "name": "dest",
          "type": "address"
        }
      ],
      "name": "payments",
      "outputs": [
        {
          "internalType": "uint256",
          "name": "",
          "type": "uint256"
        }
      ],
      "stateMutability": "view",
      "type": "function"
    },
    {
      "inputs": [],
      "name": "renounceOwnership",
      "outputs": [],
      "stateMutability": "nonpayable",
      "type": "function"
    },
    {
      "inputs": [
        {
          "internalType": "address",
          "name": "from",
          "type": "address"
        },
        {
          "internalType": "address",
          "name": "to",
          "type": "address"
        },
        {
          "internalType": "uint256",
          "name": "tokenId",
          "type": "uint256"
        }
      ],
      "name": "safeTransferFrom",
      "outputs": [],
      "stateMutability": "nonpayable",
      "type": "function"
    },
    {
      "inputs": [
        {
          "internalType": "address",
          "name": "from",
          "type": "address"
        },
        {
          "internalType": "address",
          "name": "to",
          "type": "address"
        },
        {
          "internalType": "uint256",
          "name": "tokenId",
          "type": "uint256"
        },
        {
          "internalType": "bytes",
          "name": "_data",
          "type": "bytes"
        }
      ],
      "name": "safeTransferFrom",
      "outputs": [],
      "stateMutability": "nonpayable",
      "type": "function"
    },
    {
      "inputs": [
        {
          "internalType": "address",
          "name": "operator",
          "type": "address"
        },
        {
          "internalType": "bool",
          "name": "approved",
          "type": "bool"
        }
      ],
      "name": "setApprovalForAll",
      "outputs": [],
      "stateMutability": "nonpayable",
      "type": "function"
    },
    {
      "inputs": [
        {
          "internalType": "string",
          "name": "_baseURI",
          "type": "string"
        }
      ],
      "name": "setBaseURI",
      "outputs": [],
      "stateMutability": "nonpayable",
      "type": "function"
    },
    {
      "inputs": [
        {
          "internalType": "uint256[3]",
          "name": "_cost",
          "type": "uint256[3]"
        },
        {
          "internalType": "bool",
          "name": "isMember",
          "type": "bool"
        }
      ],
      "name": "setCost",
      "outputs": [],
      "stateMutability": "nonpayable",
      "type": "function"
    },
    {
      "inputs": [
        {
          "internalType": "bytes4",
          "name": "interfaceId",
          "type": "bytes4"
        }
      ],
      "name": "supportsInterface",
      "outputs": [
        {
          "internalType": "bool",
          "name": "",
          "type": "bool"
        }
      ],
      "stateMutability": "view",
      "type": "function"
    },
    {
      "inputs": [],
      "name": "symbol",
      "outputs": [
        {
          "internalType": "string",
          "name": "",
          "type": "string"
        }
      ],
      "stateMutability": "view",
      "type": "function"
    },
    {
      "inputs": [
        {
          "internalType": "uint256",
          "name": "index",
          "type": "uint256"
        }
      ],
      "name": "tokenByIndex",
      "outputs": [
        {
          "internalType": "uint256",
          "name": "",
          "type": "uint256"
        }
      ],
      "stateMutability": "view",
      "type": "function"
    },
    {
      "inputs": [
        {
          "internalType": "address",
          "name": "owner",
          "type": "address"
        },
        {
          "internalType": "uint256",
          "name": "index",
          "type": "uint256"
        }
      ],
      "name": "tokenOfOwnerByIndex",
      "outputs": [
        {
          "internalType": "uint256",
          "name": "",
          "type": "uint256"
        }
      ],
      "stateMutability": "view",
      "type": "function"
    },
    {
      "inputs": [
        {
          "internalType": "uint256",
          "name": "_tokenId",
          "type": "uint256"
        }
      ],
      "name": "tokenURI",
      "outputs": [
        {
          "internalType": "string",
          "name": "",
          "type": "string"
        }
      ],
      "stateMutability": "view",
      "type": "function"
    },
    {
      "inputs": [],
      "name": "totalSupply",
      "outputs": [
        {
          "internalType": "uint256",
          "name": "",
          "type": "uint256"
        }
      ],
      "stateMutability": "view",
      "type": "function"
    },
    {
      "inputs": [
        {
          "internalType": "address",
          "name": "from",
          "type": "address"
        },
        {
          "internalType": "address",
          "name": "to",
          "type": "address"
        },
        {
          "internalType": "uint256",
          "name": "tokenId",
          "type": "uint256"
        }
      ],
      "name": "transferFrom",
      "outputs": [],
      "stateMutability": "nonpayable",
      "type": "function"
    },
    {
      "inputs": [
        {
          "internalType": "address",
          "name": "newOwner",
          "type": "address"
        }
      ],
      "name": "transferOwnership",
      "outputs": [],
      "stateMutability": "nonpayable",
      "type": "function"
    },
    {
      "inputs": [],
      "name": "unpause",
      "outputs": [],
      "stateMutability": "nonpayable",
      "type": "function"
    },
    {
      "inputs": [],
      "name": "withdraw",
      "outputs": [],
      "stateMutability": "nonpayable",
      "type": "function"
    },
    {
      "inputs": [
        {
          "internalType": "address payable",
          "name": "payee",
          "type": "address"
        }
      ],
      "name": "withdrawPayments",
      "outputs": [],
      "stateMutability": "nonpayable",
      "type": "function"
    }
  ],
  "bytecode": "0x600e80546001600160801b0319166109c41790556101006040526824521e2a3017b8000060a0908152682f29ace68addd8000060c0526842684a41abfd84000060e052620000529060109060036200027d565b50604080516060810182526825ad1001bb707c000081526830849ebe16369c000060208201526843c33c19375648000091810191909152620000999060139060036200027d565b5060405180608001604052806043815260200162003bfd604391398051620000ca91601691602090910190620002cb565b50348015620000d857600080fd5b5060405162003c4038038062003c40833981016040819052620000fb916200038a565b604080518082018252601581527f43726f6e6f7665727365204c616e642054696c6573000000000000000000000060208083019182528351808501909452600584526410d310539160da1b9084015281519192916200015d91600091620002cb565b50805162000173906001906020840190620002cb565b505050620001906200018a6200022760201b60201c565b6200022b565b6040516200019e9062000348565b604051809103906000f080158015620001bb573d6000803e3d6000fd5b506001600160601b031960609190911b16608052600a805460ff60a01b191690556001600b55600c80546001600160a01b039384166001600160a01b031991821617909155600d8054929093169116179055600e80546001600160801b0319166103e8179055620003fe565b3390565b600a80546001600160a01b038381166001600160a01b0319831681179093556040519116919082907f8be0079c531659141344cd1fd0a4f28419497f9722a3daafe3b4186f6b6457e090600090a35050565b8260038101928215620002b9579160200282015b82811115620002b957825182906001600160481b031690559160200191906001019062000291565b50620002c792915062000356565b5090565b828054620002d990620003c1565b90600052602060002090601f016020900481019282620002fd5760008555620002b9565b82601f106200031857805160ff1916838001178555620002b9565b82800160010185558215620002b9579182015b82811115620002b95782518255916020019190600101906200032b565b6105ef806200360e83390190565b5b80821115620002c7576000815560010162000357565b80516001600160a01b03811681146200038557600080fd5b919050565b600080604083850312156200039d578182fd5b620003a8836200036d565b9150620003b8602084016200036d565b90509250929050565b600181811c90821680620003d657607f821691505b60208210811415620003f857634e487b7160e01b600052602260045260246000fd5b50919050565b60805160601c6131e36200042b6000396000818161183301528181611c9a01526120d601526131e36000f3fe60806040526004361061021a5760003560e01c8063693c606211610123578063a230c524116100ab578063d5abeb011161006f578063d5abeb011461061a578063e042161f1461062f578063e2982c2114610661578063e985e9c514610681578063f2fde38b146106ca57600080fd5b8063a230c52414610579578063b88d4fde14610599578063b88fe6a3146105b9578063c2ba4744146105d9578063c87b56dd146105fa57600080fd5b80638456cb59116100f25780638456cb59146104fe5780638da5cb5b1461051357806395d89b4114610531578063a0712d6814610546578063a22cb4651461055957600080fd5b8063693c60621461048757806370a08231146104a9578063715018a6146104c95780637e6f7ede146104de57600080fd5b80633ccfd60b116101a65780634f6ccce7116101755780634f6ccce7146103e657806355f804b3146104065780635a9b0b89146104265780635c975abb146104485780636352211e1461046757600080fd5b80633ccfd60b1461037c5780633f4ba83a1461039157806342842e0e146103a657806343bc1612146103c657600080fd5b806318160ddd116101ed57806318160ddd146102d057806323b872dd146102ef5780632acc659e1461030f5780632f745c591461033c57806331b3eb941461035c57600080fd5b806301ffc9a71461021f57806306fdde0314610254578063081812fc14610276578063095ea7b3146102ae575b600080fd5b34801561022b57600080fd5b5061023f61023a366004612c89565b6106ea565b60405190151581526020015b60405180910390f35b34801561026057600080fd5b506102696106fb565b60405161024b9190612efb565b34801561028257600080fd5b50610296610291366004612d07565b61078d565b6040516001600160a01b03909116815260200161024b565b3480156102ba57600080fd5b506102ce6102c9366004612bcb565b610827565b005b3480156102dc57600080fd5b506008545b60405190815260200161024b565b3480156102fb57600080fd5b506102ce61030a366004612ada565b61093d565b34801561031b57600080fd5b5061032f61032a366004612a86565b61096e565b60405161024b9190612ea9565b34801561034857600080fd5b506102e1610357366004612bcb565b6109ee565b34801561036857600080fd5b506102ce610377366004612a86565b610a84565b34801561038857600080fd5b506102ce610aed565b34801561039d57600080fd5b506102ce610b23565b3480156103b257600080fd5b506102ce6103c1366004612ada565b610b55565b3480156103d257600080fd5b50600d54610296906001600160a01b031681565b3480156103f257600080fd5b506102e1610401366004612d07565b610b70565b34801561041257600080fd5b506102ce610421366004612cc1565b610c11565b34801561043257600080fd5b5061043b610c52565b60405161024b9190612fe6565b34801561045457600080fd5b50600a54600160a01b900460ff1661023f565b34801561047357600080fd5b50610296610482366004612d07565b610ce2565b34801561049357600080fd5b5061049c610d59565b60405161024b9190612eb7565b3480156104b557600080fd5b506102e16104c4366004612a86565b610db0565b3480156104d557600080fd5b506102ce610e37565b3480156104ea57600080fd5b506102ce6104f9366004612bf6565b610e6b565b34801561050a57600080fd5b506102ce610eb5565b34801561051f57600080fd5b50600a546001600160a01b0316610296565b34801561053d57600080fd5b50610269610ee7565b6102ce610554366004612d07565b610ef6565b34801561056557600080fd5b506102ce610574366004612b97565b611124565b34801561058557600080fd5b5061023f610594366004612a86565b61112f565b3480156105a557600080fd5b506102ce6105b4366004612b1a565b611246565b3480156105c557600080fd5b50600c54610296906001600160a01b031681565b3480156105e557600080fd5b506102e16105f4366004612a86565b50600190565b34801561060657600080fd5b50610269610615366004612d07565b61127e565b34801561062657600080fd5b506104b86102e1565b34801561063b57600080fd5b5061064f61064a366004612d07565b611332565b60405160ff909116815260200161024b565b34801561066d57600080fd5b506102e161067c366004612a86565b611811565b34801561068d57600080fd5b5061023f61069c366004612aa2565b6001600160a01b03918216600090815260056020908152604080832093909416825291909152205460ff1690565b3480156106d657600080fd5b506102ce6106e5366004612a86565b6118af565b60006106f58261194a565b92915050565b60606000805461070a906130d6565b80601f0160208091040260200160405190810160405280929190818152602001828054610736906130d6565b80156107835780601f1061075857610100808354040283529160200191610783565b820191906000526020600020905b81548152906001019060200180831161076657829003601f168201915b5050505050905090565b6000818152600260205260408120546001600160a01b031661080b5760405162461bcd60e51b815260206004820152602c60248201527f4552433732313a20617070726f76656420717565727920666f72206e6f6e657860448201526b34b9ba32b73a103a37b5b2b760a11b60648201526084015b60405180910390fd5b506000908152600460205260409020546001600160a01b031690565b600061083282610ce2565b9050806001600160a01b0316836001600160a01b031614156108a05760405162461bcd60e51b815260206004820152602160248201527f4552433732313a20617070726f76616c20746f2063757272656e74206f776e656044820152603960f91b6064820152608401610802565b336001600160a01b03821614806108bc57506108bc813361069c565b61092e5760405162461bcd60e51b815260206004820152603860248201527f4552433732313a20617070726f76652063616c6c6572206973206e6f74206f7760448201527f6e6572206e6f7220617070726f76656420666f7220616c6c00000000000000006064820152608401610802565b610938838361196f565b505050565b61094733826119dd565b6109635760405162461bcd60e51b815260040161080290612f95565b610938838383611ad4565b6109766128d3565b61097f8261112f565b156109b9576040805160608101918290529060109060039082845b81548152602001906001019080831161099a5750505050509050919050565b604080516060810191829052601380548252909160039060146020850180831161099a5750505050509050919050565b919050565b60006109f983610db0565b8210610a5b5760405162461bcd60e51b815260206004820152602b60248201527f455243373231456e756d657261626c653a206f776e657220696e646578206f7560448201526a74206f6620626f756e647360a81b6064820152608401610802565b506001600160a01b03919091166000908152600660209081526040808320938352929052205490565b6002600b541415610ad75760405162461bcd60e51b815260206004820152601f60248201527f5265656e7472616e637947756172643a207265656e7472616e742063616c6c006044820152606401610802565b6002600b55610ae581611c7b565b506001600b55565b600a546001600160a01b03163314610b175760405162461bcd60e51b815260040161080290612f60565b610b213347611cf9565b565b600a546001600160a01b03163314610b4d5760405162461bcd60e51b815260040161080290612f60565b610b21611e12565b61093883838360405180602001604052806000815250611246565b6000610b7b60085490565b8210610bde5760405162461bcd60e51b815260206004820152602c60248201527f455243373231456e756d657261626c653a20676c6f62616c20696e646578206f60448201526b7574206f6620626f756e647360a01b6064820152608401610802565b60088281548110610bff57634e487b7160e01b600052603260045260246000fd5b90600052602060002001549050919050565b600a546001600160a01b03163314610c3b5760405162461bcd60e51b815260040161080290612f60565b8051610c4e9060169060208401906128f1565b5050565b610c5a612975565b610c62612975565b6040805160608101918290529060139060039082845b815481526020019060010190808311610c785750505091835250506040805160608101918290529060109060039082845b815481526020019060010190808311610ca957505050505060208201526104b860608201526008546080820152600160c0820152919050565b6000818152600260205260408120546001600160a01b0316806106f55760405162461bcd60e51b815260206004820152602960248201527f4552433732313a206f776e657220717565727920666f72206e6f6e657869737460448201526832b73a103a37b5b2b760b91b6064820152608401610802565b6060601780548060200260200160405190810160405280929190818152602001828054801561078357602002820191906000526020600020905b815481526020019060010190808311610d93575050505050905090565b60006001600160a01b038216610e1b5760405162461bcd60e51b815260206004820152602a60248201527f4552433732313a2062616c616e636520717565727920666f7220746865207a65604482015269726f206164647265737360b01b6064820152608401610802565b506001600160a01b031660009081526003602052604090205490565b600a546001600160a01b03163314610e615760405162461bcd60e51b815260040161080290612f60565b610b216000611eaf565b600a546001600160a01b03163314610e955760405162461bcd60e51b815260040161080290612f60565b8015610ea85761093860108360036129be565b61093860138360036129be565b600a546001600160a01b03163314610edf5760405162461bcd60e51b815260040161080290612f60565b610b21611f01565b60606001805461070a906130d6565b600a54600160a01b900460ff1615610f435760405162461bcd60e51b815260206004820152601060248201526f14185d5cd8589b194e881c185d5cd95960821b6044820152606401610802565b6000610f4e60085490565b90506104b88110610f8c5760405162461bcd60e51b815260206004820152600860248201526714dbdb19081bdd5d60c21b6044820152606401610802565b6104b88211801590610f9f575060018210155b610fdf5760405162461bcd60e51b8152602060048201526011602482015270546f6b656e20494420496e76616c69642160781b6044820152606401610802565b600080610feb3361112f565b90506000610ff885611332565b9050811561102d5760108160ff166003811061102457634e487b7160e01b600052603260045260246000fd5b01549250611056565b60138160ff166003811061105157634e487b7160e01b600052603260045260246000fd5b015492505b823410156110995760405162461bcd60e51b815260206004820152601060248201526f6e6f7420656e6f7567682066756e647360801b6044820152606401610802565b6110a33386611f89565b6017805460018101825560009182527fc624b66cc0138b8fabc209247f72d758e1cf3343756d543badbf24212bed8c1501869055600e546110fa9085906fffffffffffffffffffffffffffffffff16612710611fa3565b600d5490915061111c906001600160a01b03166111178387613093565b6120b7565b505050505050565b610c4e338383612138565b600c54604051627eeac760e11b81526001600160a01b03838116600483015260016024830152600092839291169062fdd58e9060440160206040518083038186803b15801561117d57600080fd5b505afa158015611191573d6000803e3d6000fd5b505050506040513d601f19601f820116820180604052508101906111b59190612d1f565b11806106f55750600c54604051627eeac760e11b81526001600160a01b03848116600483015260026024830152600092169062fdd58e9060440160206040518083038186803b15801561120757600080fd5b505afa15801561121b573d6000803e3d6000fd5b505050506040513d601f19601f8201168201806040525081019061123f9190612d1f565b1192915050565b61125033836119dd565b61126c5760405162461bcd60e51b815260040161080290612f95565b61127884848484612207565b50505050565b6000818152600260205260409020546060906001600160a01b03166112fd5760405162461bcd60e51b815260206004820152602f60248201527f4552433732314d657461646174613a2055524920717565727920666f72206e6f60448201526e3732bc34b9ba32b73a103a37b5b2b760891b6064820152608401610802565b6000601661130a8461223a565b60405160200161131b929190612da2565b60408051601f198184030181529190529392505050565b6000600182101580156113465750609c8211155b8061136057506103e9821015801561136057506104b88211155b1561136d57506000919050565b6101498210158015611381575061015c8211155b8061139b575061017d821015801561139b57506101908211155b806113b557506101b182101580156113b557506101b48211155b806113cf57506101d582101580156113cf57506101d88211155b806113e957506101f982101580156113e957506101fc8211155b80611403575061021d821015801561140357506102208211155b8061141d5750610241821015801561141d57506102448211155b806114375750610265821015801561143757506102688211155b8061145157506102898210158015611451575061028c8211155b8061146b57506102ad821015801561146b57506102b08211155b8061148557506102d1821015801561148557506102d48211155b8061149f57506102f5821015801561149f57506103088211155b806114b9575061032982101580156114b9575061033c8211155b156114c657506002919050565b60a882101580156114d8575060c58211155b806114f0575060dc82101580156114f0575060f98211155b8061150a5750610110821015801561150a575061012d8211155b806115245750610144821015801561152457506101488211155b8061153e575061015d821015801561153e57506101618211155b8061155857506101788210158015611558575061017c8211155b806115725750610191821015801561157257506101958211155b8061158c57506101ac821015801561158c57506101b08211155b806115a657506101b582101580156115a657506101b98211155b806115c057506101d082101580156115c057506101d48211155b806115da57506101d982101580156115da57506101dd8211155b806115f457506101f482101580156115f457506101f88211155b8061160e57506101fd821015801561160e57506102018211155b8061162857506102188210158015611628575061021c8211155b806116425750610221821015801561164257506102258211155b8061165c575061023c821015801561165c57506102408211155b806116765750610245821015801561167657506102498211155b806116905750610260821015801561169057506102648211155b806116aa575061026982101580156116aa575061026d8211155b806116c4575061028482101580156116c457506102888211155b806116de575061028d82101580156116de57506102918211155b806116f857506102a882101580156116f857506102ac8211155b8061171257506102b1821015801561171257506102b58211155b8061172c57506102cc821015801561172c57506102d08211155b8061174657506102d5821015801561174657506102d98211155b8061176057506102f0821015801561176057506102f48211155b8061177a5750610309821015801561177a575061030d8211155b806117945750610324821015801561179457506103288211155b806117ae575061033d82101580156117ae57506103418211155b806117c8575061035882101580156117c857506103758211155b806117e2575061038c82101580156117e257506103a98211155b806117fc57506103c082101580156117fc57506103dd8211155b1561180957506001919050565b506000919050565b6040516371d4ed8d60e11b81526001600160a01b0382811660048301526000917f00000000000000000000000000000000000000000000000000000000000000009091169063e3a9db1a9060240160206040518083038186803b15801561187757600080fd5b505afa15801561188b573d6000803e3d6000fd5b505050506040513d601f19601f820116820180604052508101906106f59190612d1f565b600a546001600160a01b031633146118d95760405162461bcd60e51b815260040161080290612f60565b6001600160a01b03811661193e5760405162461bcd60e51b815260206004820152602660248201527f4f776e61626c653a206e6577206f776e657220697320746865207a65726f206160448201526564647265737360d01b6064820152608401610802565b61194781611eaf565b50565b60006001600160e01b0319821663780e9d6360e01b14806106f557506106f582612354565b600081815260046020526040902080546001600160a01b0319166001600160a01b03841690811790915581906119a482610ce2565b6001600160a01b03167f8c5be1e5ebec7d5bd14f71427d1e84f3dd0314c0f7b2291e5b200ac8c7c3b92560405160405180910390a45050565b6000818152600260205260408120546001600160a01b0316611a565760405162461bcd60e51b815260206004820152602c60248201527f4552433732313a206f70657261746f7220717565727920666f72206e6f6e657860448201526b34b9ba32b73a103a37b5b2b760a11b6064820152608401610802565b6000611a6183610ce2565b9050806001600160a01b0316846001600160a01b03161480611a9c5750836001600160a01b0316611a918461078d565b6001600160a01b0316145b80611acc57506001600160a01b0380821660009081526005602090815260408083209388168352929052205460ff165b949350505050565b826001600160a01b0316611ae782610ce2565b6001600160a01b031614611b4b5760405162461bcd60e51b815260206004820152602560248201527f4552433732313a207472616e736665722066726f6d20696e636f72726563742060448201526437bbb732b960d91b6064820152608401610802565b6001600160a01b038216611bad5760405162461bcd60e51b8152602060048201526024808201527f4552433732313a207472616e7366657220746f20746865207a65726f206164646044820152637265737360e01b6064820152608401610802565b611bb88383836123a4565b611bc360008261196f565b6001600160a01b0383166000908152600360205260408120805460019290611bec908490613093565b90915550506001600160a01b0382166000908152600360205260408120805460019290611c1a908490613048565b909155505060008181526002602052604080822080546001600160a01b0319166001600160a01b0386811691821790925591518493918716917fddf252ad1be2c89b69c2b068fc378daa952ba7f163c4a11628f55a4df523b3ef91a4505050565b6040516351cff8d960e01b81526001600160a01b0382811660048301527f000000000000000000000000000000000000000000000000000000000000000016906351cff8d990602401600060405180830381600087803b158015611cde57600080fd5b505af1158015611cf2573d6000803e3d6000fd5b5050505050565b80471015611d495760405162461bcd60e51b815260206004820152601d60248201527f416464726573733a20696e73756666696369656e742062616c616e63650000006044820152606401610802565b6000826001600160a01b03168260405160006040518083038185875af1925050503d8060008114611d96576040519150601f19603f3d011682016040523d82523d6000602084013e611d9b565b606091505b50509050806109385760405162461bcd60e51b815260206004820152603a60248201527f416464726573733a20756e61626c6520746f2073656e642076616c75652c207260448201527f6563697069656e74206d617920686176652072657665727465640000000000006064820152608401610802565b600a54600160a01b900460ff16611e625760405162461bcd60e51b815260206004820152601460248201527314185d5cd8589b194e881b9bdd081c185d5cd95960621b6044820152606401610802565b600a805460ff60a01b191690557f5db9ee0a495bf2e6ff9c91a7834c1ba4fdd244a5e8aa4e537bd38aeae4b073aa335b6040516001600160a01b03909116815260200160405180910390a1565b600a80546001600160a01b038381166001600160a01b0319831681179093556040519116919082907f8be0079c531659141344cd1fd0a4f28419497f9722a3daafe3b4186f6b6457e090600090a35050565b600a54600160a01b900460ff1615611f4e5760405162461bcd60e51b815260206004820152601060248201526f14185d5cd8589b194e881c185d5cd95960821b6044820152606401610802565b600a805460ff60a01b1916600160a01b1790557f62e78cea01bee320cd4e420270b5ea74000d11b0c9f74754ebdbfc544b05a258611e923390565b610c4e8282604051806020016040528060008152506123af565b6000808211611fe75760405162461bcd60e51b815260206004820152601060248201526f4469766973696f6e206279207a65726f60801b6044820152606401610802565b83611ff4575060006120b0565b60006120008486613074565b90508361200d8683613060565b14156120255761201d8382613060565b9150506120b0565b60006120318487613060565b9050600061203f858861312c565b9050600061204d8688613060565b9050600061205b878961312c565b90506120a86120748861206e86856123e2565b906123ee565b6120a261208186866123e2565b6120a261208e89876123e2565b6120a28d61209c8c8b6123e2565b906123e2565b906123fa565b955050505050505b9392505050565b60405163f340fa0160e01b81526001600160a01b0383811660048301527f0000000000000000000000000000000000000000000000000000000000000000169063f340fa019083906024016000604051808303818588803b15801561211b57600080fd5b505af115801561212f573d6000803e3d6000fd5b50505050505050565b816001600160a01b0316836001600160a01b0316141561219a5760405162461bcd60e51b815260206004820152601960248201527f4552433732313a20617070726f766520746f2063616c6c6572000000000000006044820152606401610802565b6001600160a01b03838116600081815260056020908152604080832094871680845294825291829020805460ff191686151590811790915591519182527f17307eab39ab6107e8899845ad3d59bd9653f200f220920489ca2b5937696c31910160405180910390a3505050565b612212848484611ad4565b61221e84848484612406565b6112785760405162461bcd60e51b815260040161080290612f0e565b60608161225e5750506040805180820190915260018152600360fc1b602082015290565b8160005b8115612288578061227281613111565b91506122819050600a83613060565b9150612262565b60008167ffffffffffffffff8111156122b157634e487b7160e01b600052604160045260246000fd5b6040519080825280601f01601f1916602001820160405280156122db576020820181803683370190505b5090505b8415611acc576122f0600183613093565b91506122fd600a8661312c565b612308906030613048565b60f81b81838151811061232b57634e487b7160e01b600052603260045260246000fd5b60200101906001600160f81b031916908160001a90535061234d600a86613060565b94506122df565b60006001600160e01b031982166380ac58cd60e01b148061238557506001600160e01b03198216635b5e139f60e01b145b806106f557506301ffc9a760e01b6001600160e01b03198316146106f5565b610938838383612513565b6123b983836125cb565b6123c66000848484612406565b6109385760405162461bcd60e51b815260040161080290612f0e565b60006120b08284613074565b60006120b08284613060565b60006120b08284613048565b60006001600160a01b0384163b1561250857604051630a85bd0160e11b81526001600160a01b0385169063150b7a029061244a903390899088908890600401612e6c565b602060405180830381600087803b15801561246457600080fd5b505af1925050508015612494575060408051601f3d908101601f1916820190925261249191810190612ca5565b60015b6124ee573d8080156124c2576040519150601f19603f3d011682016040523d82523d6000602084013e6124c7565b606091505b5080516124e65760405162461bcd60e51b815260040161080290612f0e565b805181602001fd5b6001600160e01b031916630a85bd0160e11b149050611acc565b506001949350505050565b6001600160a01b03831661256e5761256981600880546000838152600960205260408120829055600182018355919091527ff3f7a9fe364faab93b216da50a3214154f22a0a2b415b23a84c8169e8b636ee30155565b612591565b816001600160a01b0316836001600160a01b031614612591576125918382612719565b6001600160a01b0382166125a857610938816127b6565b826001600160a01b0316826001600160a01b03161461093857610938828261288f565b6001600160a01b0382166126215760405162461bcd60e51b815260206004820181905260248201527f4552433732313a206d696e7420746f20746865207a65726f20616464726573736044820152606401610802565b6000818152600260205260409020546001600160a01b0316156126865760405162461bcd60e51b815260206004820152601c60248201527f4552433732313a20746f6b656e20616c7265616479206d696e746564000000006044820152606401610802565b612692600083836123a4565b6001600160a01b03821660009081526003602052604081208054600192906126bb908490613048565b909155505060008181526002602052604080822080546001600160a01b0319166001600160a01b03861690811790915590518392907fddf252ad1be2c89b69c2b068fc378daa952ba7f163c4a11628f55a4df523b3ef908290a45050565b6000600161272684610db0565b6127309190613093565b600083815260076020526040902054909150808214612783576001600160a01b03841660009081526006602090815260408083208584528252808320548484528184208190558352600790915290208190555b5060009182526007602090815260408084208490556001600160a01b039094168352600681528383209183525290812055565b6008546000906127c890600190613093565b600083815260096020526040812054600880549394509092849081106127fe57634e487b7160e01b600052603260045260246000fd5b90600052602060002001549050806008838154811061282d57634e487b7160e01b600052603260045260246000fd5b600091825260208083209091019290925582815260099091526040808220849055858252812055600880548061287357634e487b7160e01b600052603160045260246000fd5b6001900381819060005260206000200160009055905550505050565b600061289a83610db0565b6001600160a01b039093166000908152600660209081526040808320868452825280832085905593825260079052919091209190915550565b60405180606001604052806003906020820280368337509192915050565b8280546128fd906130d6565b90600052602060002090601f01602090048101928261291f5760008555612965565b82601f1061293857805160ff1916838001178555612965565b82800160010185558215612965579182015b8281111561296557825182559160200191906001019061294a565b506129719291506129eb565b5090565b6040518060e001604052806129886128d3565b81526020016129956128d3565b815260200160008152602001600081526020016000815260200160008152602001600081525090565b8260038101928215612965579160200282018281111561296557825182559160200191906001019061294a565b5b8082111561297157600081556001016129ec565b600067ffffffffffffffff80841115612a1b57612a1b61316c565b604051601f8501601f19908116603f01168101908282118183101715612a4357612a4361316c565b81604052809350858152868686011115612a5c57600080fd5b858560208301376000602087830101525050509392505050565b803580151581146109e957600080fd5b600060208284031215612a97578081fd5b81356120b081613182565b60008060408385031215612ab4578081fd5b8235612abf81613182565b91506020830135612acf81613182565b809150509250929050565b600080600060608486031215612aee578081fd5b8335612af981613182565b92506020840135612b0981613182565b929592945050506040919091013590565b60008060008060808587031215612b2f578081fd5b8435612b3a81613182565b93506020850135612b4a81613182565b925060408501359150606085013567ffffffffffffffff811115612b6c578182fd5b8501601f81018713612b7c578182fd5b612b8b87823560208401612a00565b91505092959194509250565b60008060408385031215612ba9578182fd5b8235612bb481613182565b9150612bc260208401612a76565b90509250929050565b60008060408385031215612bdd578182fd5b8235612be881613182565b946020939093013593505050565b60008060808385031215612c08578182fd5b83601f840112612c16578182fd5b6040516060810181811067ffffffffffffffff82111715612c3957612c3961316c565b60405280846060810187811115612c4e578586fd5b855b6003811015612c6f578235845260209384019390920191600101612c50565b50839550612c7c81612a76565b9450505050509250929050565b600060208284031215612c9a578081fd5b81356120b081613197565b600060208284031215612cb6578081fd5b81516120b081613197565b600060208284031215612cd2578081fd5b813567ffffffffffffffff811115612ce8578182fd5b8201601f81018413612cf8578182fd5b611acc84823560208401612a00565b600060208284031215612d18578081fd5b5035919050565b600060208284031215612d30578081fd5b5051919050565b8060005b6003811015611278578151845260209384019390910190600101612d3b565b60008151808452612d728160208601602086016130aa565b601f01601f19169290920160200192915050565b60008151612d988185602086016130aa565b9290920192915050565b600080845482600182811c915080831680612dbe57607f831692505b6020808410821415612dde57634e487b7160e01b87526022600452602487fd5b818015612df25760018114612e0357612e2f565b60ff19861689528489019650612e2f565b60008b815260209020885b86811015612e275781548b820152908501908301612e0e565b505084890196505b505050505050612e63612e52612e4c83602f60f81b815260010190565b86612d86565b64173539b7b760d91b815260050190565b95945050505050565b6001600160a01b0385811682528416602082015260408101839052608060608201819052600090612e9f90830184612d5a565b9695505050505050565b606081016106f58284612d37565b6020808252825182820181905260009190848201906040850190845b81811015612eef57835183529284019291840191600101612ed3565b50909695505050505050565b6020815260006120b06020830184612d5a565b60208082526032908201527f4552433732313a207472616e7366657220746f206e6f6e20455243373231526560408201527131b2b4bb32b91034b6b83632b6b2b73a32b960711b606082015260800190565b6020808252818101527f4f776e61626c653a2063616c6c6572206973206e6f7420746865206f776e6572604082015260600190565b60208082526031908201527f4552433732313a207472616e736665722063616c6c6572206973206e6f74206f6040820152701ddb995c881b9bdc88185c1c1c9bdd9959607a1b606082015260800190565b600061016082019050612ffa828451612d37565b602083015161300c6060840182612d37565b50604083015160c0830152606083015160e0830152608083015161010083015260a083015161012083015260c083015161014083015292915050565b6000821982111561305b5761305b613140565b500190565b60008261306f5761306f613156565b500490565b600081600019048311821515161561308e5761308e613140565b500290565b6000828210156130a5576130a5613140565b500390565b60005b838110156130c55781810151838201526020016130ad565b838111156112785750506000910152565b600181811c908216806130ea57607f821691505b6020821081141561310b57634e487b7160e01b600052602260045260246000fd5b50919050565b600060001982141561312557613125613140565b5060010190565b60008261313b5761313b613156565b500690565b634e487b7160e01b600052601160045260246000fd5b634e487b7160e01b600052601260045260246000fd5b634e487b7160e01b600052604160045260246000fd5b6001600160a01b038116811461194757600080fd5b6001600160e01b03198116811461194757600080fdfea2646970667358221220bddd9b06c502fcc1258531cabe8f1ce899f6dc4f602fd4de883e6a1c2b5ea0d664736f6c63430008040033608060405234801561001057600080fd5b5061001a3361001f565b61006f565b600080546001600160a01b038381166001600160a01b0319831681178455604051919092169283917f8be0079c531659141344cd1fd0a4f28419497f9722a3daafe3b4186f6b6457e09190a35050565b6105718061007e6000396000f3fe6080604052600436106100555760003560e01c806351cff8d91461005a578063715018a61461007c5780638da5cb5b14610091578063e3a9db1a146100be578063f2fde38b14610102578063f340fa0114610122575b600080fd5b34801561006657600080fd5b5061007a6100753660046104aa565b610135565b005b34801561008857600080fd5b5061007a6101d7565b34801561009d57600080fd5b506000546040516001600160a01b0390911681526020015b60405180910390f35b3480156100ca57600080fd5b506100f46100d93660046104aa565b6001600160a01b031660009081526001602052604090205490565b6040519081526020016100b5565b34801561010e57600080fd5b5061007a61011d3660046104aa565b61020d565b61007a6101303660046104aa565b6102a8565b6000546001600160a01b031633146101685760405162461bcd60e51b815260040161015f906104cd565b60405180910390fd5b6001600160a01b0381166000818152600160205260408120805491905590610190908261033c565b816001600160a01b03167f7084f5476618d8e60b11ef0d7d3f06914655adb8793e28ff7f018d4c76d505d5826040516101cb91815260200190565b60405180910390a25050565b6000546001600160a01b031633146102015760405162461bcd60e51b815260040161015f906104cd565b61020b600061045a565b565b6000546001600160a01b031633146102375760405162461bcd60e51b815260040161015f906104cd565b6001600160a01b03811661029c5760405162461bcd60e51b815260206004820152602660248201527f4f776e61626c653a206e6577206f776e657220697320746865207a65726f206160448201526564647265737360d01b606482015260840161015f565b6102a58161045a565b50565b6000546001600160a01b031633146102d25760405162461bcd60e51b815260040161015f906104cd565b6001600160a01b0381166000908152600160205260408120805434928392916102fc908490610502565b90915550506040518181526001600160a01b038316907f2da466a7b24304f47e87fa2e1e5a81b9831ce54fec19055ce277ca2f39ba42c4906020016101cb565b8047101561038c5760405162461bcd60e51b815260206004820152601d60248201527f416464726573733a20696e73756666696369656e742062616c616e6365000000604482015260640161015f565b6000826001600160a01b03168260405160006040518083038185875af1925050503d80600081146103d9576040519150601f19603f3d011682016040523d82523d6000602084013e6103de565b606091505b50509050806104555760405162461bcd60e51b815260206004820152603a60248201527f416464726573733a20756e61626c6520746f2073656e642076616c75652c207260448201527f6563697069656e74206d61792068617665207265766572746564000000000000606482015260840161015f565b505050565b600080546001600160a01b038381166001600160a01b0319831681178455604051919092169283917f8be0079c531659141344cd1fd0a4f28419497f9722a3daafe3b4186f6b6457e09190a35050565b6000602082840312156104bb578081fd5b81356104c681610526565b9392505050565b6020808252818101527f4f776e61626c653a2063616c6c6572206973206e6f7420746865206f776e6572604082015260600190565b6000821982111561052157634e487b7160e01b81526011600452602481fd5b500190565b6001600160a01b03811681146102a557600080fdfea264697066735822122097aaf8330e2b679c3d08b05923d025844a488ff53c65b2f148c20b20172688e864736f6c6343000804003368747470733a2f2f697066732e696f2f697066732f516d57395375536a4745576f7150506a3167327a7a31424e6e6b716f434231635748736d6e537855556a5a4e4a33",
  "linkReferences": {},
  "deployedLinkReferences": {}
}